:104000005542200135D0085A82450C143140003900
:104010003F4028000F93082492420C1420012F8364
:104020009F4F84790011F8233F40E4020F93072447
:1040300092420C1420011F83CF432811F9232183BE
:10404000B0125446474F3D4012003E40FF003F40F3
:10405000A411B012666CF243B613F243FC13B240E3
:10406000805A2001A242600182432E01A2428001B7
:1040700082431E01B24020026001B2402001800153
:10408000F24084FF5700C2435800B2400040820112
:104090003B400C003D4000080E430C4E0CDD5942E5
:1040A00057000A4C8A107AF0070079F0F8FF4AD9D5
:1040B000C24A5700C24C5600794003000A430843E5
:1040C0000F3C18429001385282489201B2F0FEFF34
:1040D000820192B38201FD271F427001084A0A4FF4
:1040E0007953EF230A883A900104012C0E4C0D11EC
:1040F0003B53D3230F4E3FF0E0003F90E0000220FF
:104100003EF0E0FF5C4257000D4E8D107DF0070041
:104110007CF0F8FF4DDCC24D5700C24E56005E42A7
:1041200057007EF007007ED080FFC24E5700E2426B
:104130005800F2F0FDFF000082437001B24002021D
:10414000600182439001B240020180011E42600181
:104150003EF0CFFF3ED02000824E60011E42800123
:104160003EF0CFFF3ED02000824E8001C2432600A9
:10417000C2432E00C2431B00C2431F00C243330090
:10418000C2433700C2432100F240E0FF2200F24068
:1041900030002900F2407B002A00C2431900F2409F
:1041A000F1FF1A00F240DDFF1D00F240FDFF1E008E
:1041B000F2433100F2433200C2433500F24336008D
:1041C000C2432500C2432D001F4270011E427001F0
:1041D0000E8F3E900128FA2BE2D31A00F2D21A0079
:1041E000F2D080FF1E00F2D010001E00F2D080FF3F
:1041F0001D00F2D010001D0003430343F2F0EFFF57
:104200001D00F2F0F7FF19005F43B01220454F4345
:10421000B01220455F43B01220455F43B0122045E5
:104220005F43B01220454F43B01220454F43B012B8
:1042300020455F43B0122045F2D010001D00F2D29D
:104240001900E2D31900F2D010003200F2D02000A1
:104250003200F2D040003200B0121E51F2D02000E5
:104260003100F2D040003100B01290694F93FC232E
:10427000F243BD13C243EC11C243EE11F2400A00F7
:104280008E12C243DE11C243E511C243B71382430B
:104290000A14C243F813C2430612B0120245C243C5
:1042A000F511C243F411C2432811F243E411B2F0F4
:1042B000EFFF8201B24000408201F243CC11F2D004
:1042C00010001E00F2D080FF1E00B0120A4EF2D085
:1042D00080FF1D00B01258554F930220D243521157
:1042E000B01290694F93FC234F47B012664632D20A
:1042F000B01254464E4FF2900A008E120624E292FB
:10430000D0110324B0126646073C4F4EB0126646E9
:104310007F400B00B0126E46B2400028A613301248
:10432000002830124279B012D06C21523012A413FE
:104330003012F477B012D06C2152B012F057D2B3D1
:1043400079110F430F6F5F9323203F401A78B0120B
:104350002475B012F057D2B379110F430F6F4F93FA
:104360001024E243961282439012B240A413921298
:10437000A2429412C29386110420B012D6534F93D6
:1043800022243F402B78B0122475B012F0571B3C0A
:104390003F403878B0122475B012F057B0122E5149
:1043A000B0125A544F9309203F405E78B0122475E2
:1043B000B012F057B0123E51063C3F407778B01231
:1043C0002475B012F057B01254464A4F863CC2933F
:1043D0001A117724B2B0100062010820B2B01000A8
:1043E00064010420B2B01000660107241E4260017F
:1043F0003EF000033E9000022E245F4204003FB0D6
:10440000C00005245F4271003FF0200026205F427B
:1044100005003FB0300005245F4279003FF02000E6
:104420001E205F4270001FF31C245F4271003FF0AA
:1044300020001A245F4272003FF0200018245F42DF
:1044400070002FF217245F4270003FF0200015200B
:104450007E400500133C6E43113C6E430F3C6E439F
:104460000D3C7E4005000A3C7E400500073C7E4036
:104470000500043C7E400500013C6E43B2B01000D4
:10448000A0011924B2B01000A2010524B2B2A20109
:104490000F246E43103C1F42A2013FB000040B24C6
:1044A0001D4260013DF000033D9000020420023CEB
:1044B0004E43013C6E437E90050001286E42C24E81
:1044C00060115E4260110E5E1E4E6C793ED2814ECE
:1044D000000022D132C203430343F293B61377277D
:1044E000B012D0454B4F7F9372274F4AB0126646A9
:1044F0004F4BB0124C61673F32D0F000FD3F30406F
:10450000A276C243AB13C243AA13E242D011C24304
:104510009D12C243B013C243D111824302123041F3
:104520004F9304245F4219006FD3043C5F4219008B
:104530007FF0FDFFC24F1900F2D21900F2F0F7FF31
:1045400019003041F2F0EFFF05003F403300FFF06B
:10455000FDFF0000FFF0FBFF0000FFF0F7FF000091
:104560003041F2F0CFFF05003F401B00FFF0BFFFDE
:104570000000FFF07F00000030410D4F8D104D4DC9
:104580004F4F8F100DDF4E4E0DEE4F4D12C34F109B
:1045900012C34F1012C34F1012C34F104E4F0EEDE7
:1045A0004F4E8F100F5F0F5F0F5F0F5F0FEE4E4F7D
:1045B0000E5E0E5E0E5E0E5E0E5E0FEE30414F938F
:1045C0000324D24370003041F2F0FEFF700030410E
:1045D0005F42B6134E4F3E50A4116D4EC24DB613FE
:1045E0007D930220F243FC13FE43000030415F93B1
:1045F0000C2403286F931820103C1F4262018F1077
:104600005FF312241F42720130411F4264018F1078
:104610005FF30A241F42740130411F4266018F106C
:104620005FF302241F42760130415F43B012BE4562
:10463000F2F0BFFF04003F401B00FFF0FDFF000051
:10464000FFF0FBFF0000FFF0F7FF00004F43B01248
:10465000BE4530410E4232C2034303433EF25F4344
:1046600001204F4330414F93012432D230410B128D
:104670004B4FB01254464E4BFE93A41106201E43DE
:10468000C29BFC1303240E43013C1E430E930E20D9
:10469000F293B6130320C24BB613043C5E42FC13E4
:1046A000CE4BA411C24BFC134B43023C7B40050094
:1046B000B01266464F4B3B413041C2933A112C2019
:1046C0004F932A20D2433A11D24212113811D2B359
:1046D0004C110F430F6FC24F901192420C113611C3
:1046E000D2424A1134115E424C115EF35F43012401
:1046F0004F435E424C117EF0FEFF4EDF1FF30F5F13
:10470000924F0E110C117EF0E7FFC24E4C117F400C
:104710000F00B0126E463041D2B34C110F430F6FF1
:104720005E424C114F9303247EF0FBFF023C7EF06F
:10473000FDFFC24E4C113041F2900A008E12032050
:10474000E292D0110324D2434E1130417F400C003D
:10475000B0126E46C2434E113041C24FCD114F438D
:10476000B0126E4630410B12B01254464B4FC293FA
:10477000F81308207F400A00B0126E464F930220C3
:10478000D243F8134F4BB01266463B4130410B12F7
:104790000A124B4F4A4E5F42D0115F930E240628F7
:1047A0006F933C247F900300E720463C4B9302200C
:1047B0003040A049B0120245F13C4B93F1201F421A
:1047C0000212B0127A45824F0212E243D011C24A5D
:1047D000B0137A904400D0205D424C115DF3032465
:1047E000E2B24C11023CE2B34C110E430E6E4E93FA
:1047F000C3205F424C114D9302246FD2013C6FD312
:10480000C24F4C115F424C117FF0E7FF7FD2C24F85
:104810004C11C2434A11F2431211C23C4B93AC20DB
:10482000C24ED1111F420212B0127A45824F0212BB
:10483000F2400300D011B43C5F429D127F939C2450
:104840004B9341246F9398285F42AA134F930224FD
:104850007F53013C6F434E4F5E4EAC138E104F930F
:1048600002247F53013C6F434F4F5F4FAC130FDE69
:104870001F92021281204F43B012BA465C42D111FE
:104880005E42F4115B42F5114F4E5F537F9006007C
:10489000022C4D4F013C4D434D9B0C244E4ECE4CB3
:1048A000F611C24FF4117F9006000228C243F411A2
:1048B000B0126647B0120245F2F0FDFF3211C2930A
:1048C0004E116E24643C6F9346285F42AB135E4FDB
:1048D000AC135F424C1112C34F1012C34F1012C3DE
:1048E0004F103FF003001F9303242F932020133C0D
:1048F0005F424C117FF0E7FF7FD01000C24F4C1198
:104900004E9302244F43023C7F400500C24F4A11A0
:10491000C24E12110C3C5F424A117F903400072CAA
:104920004F4F1F520C11CF4E0000D2534A115D421F
:10493000AB134F4D5E4FAC134F4D5F53C24FAB1394
:104940007F9003000228C243AB131F420212B01231
:104950007A45824F02125E42AA134F4ECF4AAC13E1
:104960004F4E5F53C24FAA137F9003000228C243E9
:10497000AA13D2539D12143CB0120245F2F0FDFF6F
:1049800032115F43B012BA46C2934E110524E2427F
:10499000D011B0123847043C4B930224D243D011BB
:1049A0003A413B4130410B120A120B4D4A4C7C906C
:1049B0001D00442CCD4E06008E10CD4E0500CD4F6F
:1049C0000B00CB4C0900829346113A20B01254469A
:1049D000F24005004211C2434011824B4811A243EC
:1049E0004611C2433C11C2433E117A500C00C24AE8
:1049F0004411B0126646B0125446F2900A008E126C
:104A00000320B0126646163CB0126646B0125446F9
:104A1000C293EE110620D243EE11C243EF115B4365
:104A2000013C4B43B01266464B930424B0126647D8
:104A30004F43083C824346115F43043C6F43023CB2
:104A40007F4005003A413B413041C24313111D42B2
:104A5000FC110D9304245F42BE131FF30224D243C2
:104A60001311C293131112205F4D05008F105E4D7C
:104A700006005C4D09000EDF5F4D0B00B012A64929
:104A80004F9304247F400900B0126E4630415F42CC
:104A9000C9138F105E42CA13C24313117C401C001D
:104AA0003D40C4130EDF5F42CF13B012A6494F93AF
:104AB0000424D24313118243FC1130410B125B4298
:104AC0002A117B901C00022C4B4B023C3B401C00EB
:104AD0003D401C000E433F40D013B012666C5F4255
:104AE0002E115D422A110E430E3C4C4F5C4CAA1213
:104AF0004D9306245F537F90FAFF01204F437D536F
:104B0000CE4CD0131E530E9BF023C24F2E11C24D1C
:104B10002A11F243CA13F243C913F2406400CF13BF
:104B20008293FC110D20B240C413FC11F2401C0012
:104B3000CD13C29313110824B0128E4A4F9304244C
:104B40007F401100B0126E463B4130414F930F2021
:104B50004E930920C2932A110324B012BC4A30415B
:104B6000C243281130417F401100B0126E463041DF
:104B7000B01254464E4FC29308110820F290030021
:104B800030110420B01266465F4330414F4EB012E0
:104B900066464F433041B012704B4F9311248293BD
:104BA000C0131020B240B711C0139243A212C243E7
:104BB00062119243D411D242B7117F004F4330416A
:104BC0005F4330417F40050030414E4F7E5083FFB0
:104BD0006E930A2CD2D332117FE02000C24F9C1278
:104BE000F2407D00B711023CC24FB711B012964B94
:104BF0003041B0125446F2F0FEFF3211F2407E0016
:104C0000B711B0126646B012964B30410B120A1221
:104C10000912D2B332110924F2F0FEFF3211D2424E
:104C20009C12B711B012964B873C5F428E127F5395
:104C30007F927D2C4F4F0F5F104FA4765F42E5119E
:104C4000B012CA4B4B4FF24003008E125E42E51188
:104C50000A3C5F42B713B012CA4B4B4FF2400300FD
:104C60008E125E42B7131F420A14B0127A45824F69
:104C70000A145B3C5F4206120F5F3F50EC115F4F1E
:104C80000100B012CA4B4B4F594206124A490D4A15
:104C90000D5D3D50EC115E4D01001F420A14B01233
:104CA0007A45824F0A145D42DE115D53C24DDE111A
:104CB00059931B205E4242114F4E1F5248116F4FB5
:104CC0005E53C24E4211C29E4411032CE243EE11C8
:104CD0004F430E4A0E5E3E50EC11EE930000052449
:104CE0007D930324CE4F0100203CE2428E121D3CF6
:104CF0005F420A14B012CA4B4B4FF24005008E12AD
:104D0000143C1F420A148F10B012CA4B4B4FF24092
:104D100006008E120A3CB012F24B4B4FF2400700D5
:104D20008E12033CF2428E12053C4B930524F24056
:104D300009008E12B012664739413A413B41304179
:104D40000B12B01254461D42DC111E42B8130D93D3
:104D500003240D5E6D4D013C4D43C24D77006E53F3
:104D60001D42BA134C4E0D9C1C2C4E4D1A3C5D42FC
:104D700002003DF04000FB275B4276001D428C1292
:104D80000D9303240C5DCC4B00001D42DC110D93F0
:104D900004241D52B8136D4D013C4D43C24D7700A4
:104DA000013C4E4E1C42B8130D4C1D53824DB8139E
:104DB0000D9EDD2BB01266463B413041B012544689
:104DC000F2F0EFFF1D00B01266463041C243EA1117
:104DD000824FDC11824E8C12824DBA138243B8137B
:104DE0000D930D24B0125446F2F0BFFF0200F2D032
:104DF00040000000B0126646B012404D043C7F40B7
:104E00000600B0126E464F433041B0125446F2D005
:104E100010001D00B012664630410B120A12091232
:104E2000494F4A4EB012BC4D0D434B434E4A0D3CC8
:104E3000C24977005F4202003FF04000FB27F2F0DA
:104E4000BFFF02005B4276001D530D9EF13BB01286
:104E50000A4E4F4B39413A413B4130411C42981276
:104E60001D429A12C24D8D110E4C8E108D104EEDBA
:104E70000EEDC24E8E11C24C8F114F9305245E432E
:104E80007F400600B0121A4EB012BC4D2D420E43A8
:104E90003F408C11B012CC4D4F4330410B120A12DF
:104EA0000912C24356115F428C117F900300062401
:104EB0007F90D8FF44246F937120093CC293541112
:104EC0006A24C24354119242F211A813643C1C425A
:104ED0009E121D42A012194204121A4298121B423D
:104EE0009A121E42D8111F42DA110E8C0F7D824E8B
:104EF000D811824FDA110E9302200F934D240A5CD1
:104F00000B6DE2438C11824A9812824B9A12095C13
:104F1000824904123AF0FF000BF33C4000010D43BC
:104F20000C8A0D7B0F9D04280D9F04280E9C022CDB
:104F30000C4E0D4F824C9E12824DA012283C1E42F8
:104F4000D8111F42DA111E530F63824ED811824FBF
:104F5000DA111F92A8120628829FA8121C281E92FE
:104F6000A612192CC2937E1102247D43013C5D439D
:104F70004F4D0F5F5F4F78795F521E124F5EF240C8
:104F8000D8FF8C114F4F82439812824F9A125F4381
:104F9000B0125C4E033C4F43B0125A4739413A417C
:104FA0003B413041A242F011824E1E12824F20122C
:104FB000B2400008A6128243A8120E532F62D243B9
:104FC00054118243F211824E8811824F8A11824E0F
:104FD0009812824F9A12B24000087A1182437C11D3
:104FE000F24003008C11B240B8110412B24010001C
:104FF0009E128243A0124F43B0125C4E30410B12FE
:105000000A120912081218410A0019410C004F93A4
:105010001E209243F011824D1E12824E2012824CAD
:10502000FA138248A6128249A812F24003008C119A
:105030000D532E62824D9812824E9A12824C0412A7
:1050400082489E128249A012B0125C4E013C5F431E
:10505000384139413A413B4130410B120A120912A1
:1050600008121A410A001B410C00A243F011824EA3
:105070001E12824F2012824DFA13824AD811824B9F
:10508000DA11824AA612824BA812E2438C11084E12
:10509000094F085329628248981282499A12824D18
:1050A00004123EF0FF000FF33C4000010D430C8E54
:1050B0000D7F0E4C0F4D0B9D04280D9B04280A9C60
:1050C000022C0E4A0F4B824E9E12824FA0125F435B
:1050D000B0125C4E384139413A413B413041B24017
:1050E0000300F0113E401E12CE4F0000CE430100DF
:1050F000824320129243A6128243A8128243D811FF
:105100008243DA11F240D8FF8C116F524F4F824325
:105110009812824F9A125F43B0125C4E3041B01227
:105120005446F2D010003100B01266463041B01241
:105130005446F2F0DFFF3100B01266463041B01243
:105140005446F2F0EFFF3100B012664630410B12C8
:105150000A1209120812B01254464C4F1A42FE119C
:105160001B4200121D429001013C0D4F1F42900155
:105170000D9FFB231F4280015FF30A241A530B6328
:105180001D429001013C0D4F1F4290010D9FFB23DA
:1051900012C30D1012C30D1012C30D1012C30D1047
:1051A00012C30D10084D09430E4A0F4B4FEA0FEA88
:1051B0008F104E4E8E100E5E0F6F0E5E0F6F0E5ED6
:1051C0000F6F08DE09DF4F4CB01266460E480F49DC
:1051D000384139413A413B4130410B120A12B01279
:1051E0004E511C42E6111D42E8110A4C0B4D1A5259
:1051F000E0111B62E2110F9D092802200E9C062877
:105200000B9D102809200A9C0D28063C0B9D0428A4
:105210000D9B27280A9C252C0F9B04280B9F2128D7
:105220000E9A1F2C0C4A0D4B0C8E0D7F0D930320F4
:105230003C90010418280A4E0B4F3A5000040B63AF
:10524000824AE611824BE8110A4C0B4D3A5000FCA1
:105250003B63824AE011824BE2113C4000040D4363
:105260000A3C0C430D43824AE611824BE81182430B
:10527000E0118243E2110C5C0C5C0C5C0C5C0C5C7D
:105280000E5E0E5E0E5E0E5E0E5E1F429001013CD3
:105290000F4D1D4290010F9DFB230B4F0B8E0B9C5E
:1052A00009281F429001013C0F4E1E4290010F9EA3
:1052B000FB230C3C0C8B3C9003000C2C1F429001F8
:1052C000013C0F4E1E4290010F9EFB232F53824F35
:1052D0009201033C0C5F824C9201B2F0FEFF82010E
:1052E000B2D0100082013A413B4130417F92502CB4
:1052F0004F4F0F5F104FB4761F4282018F105FF344
:1053000003241F4292013041B2F0EFFF82018293E9
:10531000E01107208293E21104206F43B0126E4621
:105320003041B012DA5130411F4284018F105FF3D7
:105330002F241F42940130411F4286018F105FF3DA
:1053400027241F42960130411F4288018F105FF3CE
:105350001F241F42980130411F428A018F105FF3C2
:1053600017241F429A0130411F428C018F105FF3B6
:105370000F241F429C0130411F428E018F105FF3AA
:1053800007241F429E0130419253FE118263001296
:1053900030410B12B01254464B4FD29317111520C7
:1053A0005E425E115E9305205F43B0126E464F4B26
:1053B000083C6E930A20D242A4121711F240030057
:1053C0005E11B01266464F43043C4F4BB012664626
:1053D0005F433B413041B01254464D4FC2935E1182
:1053E0001220D2435E11C243A412B0126646C29389
:1053F0005C110620D24358116F42B0126E461F3C1A
:10540000D2435A111C3CC293A41217241E43F29398
:10541000CC110420C293181101240E430E930C20CA
:10542000F29319110320C2431911043C5F42181171
:10543000CF43CC11C24318114F4DB0126646924271
:10544000901280119242921282119242941284110F
:105450009242961286114F433041E2429612C29315
:1054600086110320B012D65330417F4005003041F1
:105470000B121F42001112C30F10C24FBC13B01207
:1054800054464B4FD2437800B01244455E4203115C
:105490007EF0FAFF5ED3C24E7800D242041179004A
:1054A000D24205117A001E420011C24E7C008E10BD
:1054B0004E4EC24E7D00D24202117B005E4206116A
:1054C0007EF003007E9003000B20F2D040001B0012
:1054D000F2D080FF1B005E4205007ED030000F3C02
:1054E0006E931020F2F0DFFF0500F2F0BFFF1B000B
:1054F000F2D080FF1B005E4205007ED01000C24E3D
:105500000500123C5E930E20F2F0EFFF0500F2F072
:105510007F001B00F2D040001B005E4205007ED0E1
:105520002000ED3FB0126245F2F0FEFF7800F2F08D
:10553000CFFF0300F2F0CFFF01004F4BB0126646E1
:10554000B0125446F2F0CFFF0300F2D03000010059
:10555000B01266463B4130410B12B01254464D4FDB
:10556000C29350112320D2435011C243D211B01222
:105570006646B01254464B4FD293141115205E422A
:1055800050115E9305207F400700B0126E460C3C20
:105590006E930A20D242D2111411F240030050112E
:1055A000B01266464B43223C4F4BFA3FC293D21196
:1055B000F7271E43F293E4110420C293151101242E
:1055C0000E430E930E20F29316110320C2431611C0
:1055D000043C5F421511CF43E411C24315114B4304
:1055E000023C7B4005004F4DB01266464F4B3B419D
:1055F0003041D2935A110620B01258554F930220D1
:105600009243D611B0125446C2435A11C2435C11A0
:10561000B012664630410B12B01254464B4FF29016
:10562000030050112820C293141125205D42161149
:105630007D9316244E4D5F4EE411C24F16117F9399
:105640000220F2431511FE43E411C24DD211F24380
:105650001411D24350117F400700B0126E46043C33
:10566000D2431411C2435011B0122A464F4BB0120C
:1056700066464F43043C4F4BB01266465F433B4186
:105680003041B0121656B012585530410B120A1262
:105690001A42BA131E42DC11C293EA1162205F4221
:1056A0008C117F9003000C246F92032C6F93592070
:1056B000493C7F90C7FF4F247F90D8FF52204B3C3E
:1056C0003E908C1105201D429E121E420412313C58
:1056D000C293541132241F42F2110B43053C5E4B1E
:1056E000B811B0127A451B530B9AF923824FF2116D
:1056F0000E4B0F43825E8811826F8A111C427A1111
:105700001D427C110C8E0D7F0E4C0F4D824C7A1178
:10571000824D7C110C9302200F930F240F930320D2
:105720003E90110003283E4010000F430D4E3E40B6
:10573000B8110F43B012CC4D143CB0120A4EB01247
:105740009C4E0F3C3E908C1106201D429E120E4333
:105750001F420412EF3FB0120A4ED2435611B0124C
:1057600082563A413B4130410F120E120D120C127B
:105770004F43B012EE453C413D413E413F41B1C037
:10578000F000000000130F120E120D120C121F4237
:105790002E014F4F12C34F10B012EE453C413D4118
:1057A0003E413F41B1C0F000000000130F120E1245
:1057B0000D120C124F43B012EC523C413D413E41A0
:1057C0003F41B1C0F000000000130F120E120D1285
:1057D0000C121F421E014F4F12C34F10B012EC5259
:1057E0003C413D413E413F41B1C0F000000000134B
:1057F000B0125446D29328110420B01266460F43CB
:105800003041C2932A110420B01266461F43304132
:10581000D2432811B0126646B012BC4A0F43304141
:105820000B120A1221830B4F4A4C3F40C476814D24
:105830000000B01224751212A6133012DC76B012DA
:10584000D06C21521212A4133012FC76B012D06C1C
:1058500021523012800030120F77B012D06C2152DA
:105860003012000430122077B012D06C21520B128B
:1058700030122077B012D06C2152B012F0572D4167
:105880004A9363200E4B3F40A413B0126C6B92936B
:10589000A4132C201F42A61312C30F10824FA6136D
:1058A0000F123012DC76B012D06C2152B012F057C9
:1058B0001F42A6133F90010402283F400004824F7C
:1058C000A6130F1230123177B012D06C2152B012E1
:1058D000F0571F42A6133F908000022C3F40000467
:1058E000824FA6130F1230127777133CB0122E514D
:1058F0009243A413B2400028A61313123012BD77AE
:10590000B012D06C2152B012F0571212A6133012FE
:10591000CE77B012D06C2152B012F057B0123E5177
:10592000F2400300961282439012B240A4139212E6
:10593000A2429412C29386110220B012D6533F4065
:10594000DF77B0122475B012F05721533A413B4132
:1059500030410B120A120912081207124A4F484E20
:105960004B4F0D4B0D5D0D5D0D5D594D86114F93E8
:105970003520C2937E1132208243F011F2437E1112
:10598000B0121656B0125446474FF29003005E1103
:105990002220C29317111F205E4219117E931324F7
:1059A0004D4E5F4DCC11C24F19117F930220F2432F
:1059B0001811FD43CC11C24EA412F2431711D24369
:1059C0005E115F43063CD2431711C2435E117F4014
:1059D0000500B0126E464F47B01266460B5B0B5B7C
:1059E0000B5BCB4386116993632479900300032CEE
:1059F0005993A920063C7990030065246992A3205D
:105A0000733C4A93A0204F480F123012F477B01223
:105A1000D06C2152B012F057489347203F4009788C
:105A2000B0122475B012F057D2B379110F430F6F33
:105A30005F931F203F401A78B0122475B012F057C0
:105A4000D2B379110F430F6F4F931024E243961294
:105A500082439012B240A4139212A2429412C293B3
:105A600086110420B012D6534F936D243F402B78FB
:105A7000173C3F403878B0122475B012F057B0127E
:105A80002E51B0125A544F9309203F405E78B01205
:105A90002475B012F057B0123E51553C3F40777814
:105AA000B0122475B012F0574E3C3F408F78F83F4B
:105AB0001D4B84111F4B82114A9345204C480E43C5
:105AC000B0122058403C4A933E203F409C78B01290
:105AD0002475B012F05748933620B0125A544F93A1
:105AE00032243F40B578DC3F4A932D201212A61392
:105AF0003012CB78B012D06C21521212A413301293
:105B0000FC76B012D06C21523F40DD78B012247583
:105B1000B012F057B0121E511B42A613B0124E51D4
:105B2000824E1412824F1612824B181282431A129E
:105B30005F421C127FF0FEFF6FD3C24F1C127F40EA
:105B40000300B0126E463741384139413A413B417A
:105B500030410B124B4F1C42CA113C9006000228E8
:105B600030406C5D0F4C0F5F104FF0780E430F43C9
:105B7000883C0E430F439A3C4F4B021232C2034300
:105B8000824F3201B240160038011E423A013241C2
:105B90008E436411021232C20343824F3201B2407B
:105BA000160038011E423A013241BE400001661122
:105BB000021232C20343824F3201B2401600380152
:105BC0001E423A013241BE4000026811021232C246
:105BD0000343824F3201B240160038011E423A019F
:105BE0003241BE4000036A11021232C20343824FA7
:105BF0003201B240160038011E423A013241BE4025
:105C000000046C11021232C20343824F3201B240CF
:105C1000160038011E423A013241BE4000056E11A5
:105C2000021232C20343824F3201B24016003801E1
:105C30001E423A013241BE4000067011021232C2C9
:105C40000343824F3201B240160038011E423A012E
:105C50003241BE4000077211021232C20343824F2A
:105C60003201B240160038011F423A013241BF40B2
:105C7000000874114E434F4BB0125259773C0E43FB
:105C80001F430D4C0D5D0C5D0C5C031230120600C1
:105C90003C50FE130D4E0E4F3D50FAFF0E634F4B1E
:105CA000B012FE4F2152623C0E431F434B935E20C5
:105CB000B012A44F5B3C1E42FE131F4200143E93E1
:105CC00008203F930620B29304140320B2930614D5
:105CD00026244D4B021232C20343824D3201B240A0
:105CE000160038011D423A013241DDD379113E934D
:105CF00002203F9312241C4204141D4206143C93BC
:105D000002203D930C240C8E0D7F5F430D930738CA
:105D10001D9306341C93042C023C5F43013C4F430B
:105D20004E4B021232C20343824E3201B240160081
:105D300038011D423A013241CD4F7811021232C270
:105D40000343824E3201B240160038011C423A0130
:105D500032414D4F0E4D0E5E0E5D0E5E9C4EFE139B
:105D600076114B9303205FE3B012DE509253CA11B9
:105D70003B4130410B120A12091208120712061297
:105D800005120412494F4C4F021232C20343824C97
:105D90003201B240160038011B423A0132413B50F9
:105DA00064111642CA1117429211084788104848D8
:105DB0004A474F484F564F4F0F5F0F5B244F4F4A94
:105DC0000D440D5F0E43021232C20343824C320176
:105DD000B240160038011F423A013241554F781146
:105DE0005F433490000801284F434F9502200D5324
:105DF0001E635F42C2134F9303245F935320253CDD
:105E00000C5C0C5C0C5C3C5080116F4C4A9F032C6A
:105E10004F4F4A4A1F3C4A9F45201E4B10000F43DC
:105E2000459302200E531F631A4C04001B4C0200C2
:105E3000499308200C4A0D430D120C120D4BB01261
:105E40005A502152D243C2132D3C4A9314244A4A39
:105E50003F4000010F8A3F90110002283F40100090
:105E60000A4F0B430B120A123C4094114F49B012D7
:105E7000FE4F2152173C8B8710004E430C3C1D4BAC
:105E800010000F560F5F0F5B8F4D00003D5000015B
:105E90008B4D10005E534F4E0F98F12B4E434F49E0
:105EA000B0125259344135413641374138413941B8
:105EB0003A413B4130410B124B4F4F4F021232C21D
:105EC0000343824F3201B240160038011E423A01AC
:105ED00032413E506411B290000192110428925355
:105EE000CA11824392111F42CA113F92292C0F5F9F
:105EF0000E5F2D4E0E4D1E5292110F435C433D908E
:105F0000000801284C434D4B021232C20343824D1C
:105F10003201B240160038011D423A0132415C9D07
:105F2000781102200E531F630312301210003C4000
:105F300094110D4E0E4F4F4BB012FE4F21524E3C5E
:105F40003F920D20C293781103240E430F43023C6D
:105F50000E431F434B932D20B012A44F2A3C3F9079
:105F600009002A205D4E14005DE3CE4D1400BE40B2
:105F7000000810008E430000BE4000010200BE4039
:105F800000020400BE4000030600BE4000040800FA
:105F9000BE4000050A00BE4000060C00BE400007DF
:105FA0000E004B9306205F434D9301244F43B012E4
:105FB000DE509253CA11123C4F4B021232C20343BD
:105FC000824F3201B240160038011F423A0132417D
:105FD000DFD379114E434F4BB01252593B41304100
:105FE0000B120A128243CA11824392115F42861138
:105FF0006F9310247F900300032C5F933020063CA6
:106000007F9003001D246F922A20263C4F43B0123C
:10601000525B253C1A4284110B431C4282111E42E2
:1060200080110F43D293781102200E531F630B127D
:106030000A120D4E0E4F4F43B012FE4F21520F3C2D
:10604000C243C2131F4280118F104F4F824FCA119B
:106050004F43B012745D033C4F43B012B65E3A41F9
:106060003B4130410B120A120912081207120612A4
:1060700037400A125642121266B312241A420A120A
:106080001B420C121C420E121D421012084E094FE8
:10609000088A097B099D04280D991928089C172C4A
:1060A0003740141256421C1266B345241A42141289
:1060B0001B4216121C4218121D421A120E8A0F7B26
:1060C0000F9D392802200E9C36281F43013C0F43A8
:1060D00056F30424F7F0FDFF0800083C084A094B7A
:1060E000085C096D87480000874902005F93162409
:1060F000B01254464A4FC29358110E20D2435C113D
:10610000B01258554F930320A243D611053C7F90FF
:1061100009000220B012F2554F4A0B3C3F40FC7878
:10612000B0122475B012F057B0125446F2E040009D
:106130003100B01266467F400300B0126E46364111
:106140003741384139413A413B4130410B120A1243
:10615000091208120712061221837F9012000228EA
:10616000304080694F4F0F5F104F1479B290050097
:10617000F0110228304080691F42F0110F5F5B422E
:106180007E11104F38794B930224304080693040A3
:106190009A655E42CD111C42A6121D42A8121A42F7
:1061A000FA134B930224304080695F4286116F934B
:1061B00010247F900300052C5F93022430408069F7
:1061C0003B3C7F9003000A246F9202243040806998
:1061D000083C4F43B0125259304080691E4274113E
:1061E000063C5B42CA118B100E4B1E5292110F439C
:1061F000C293781102200E531F630D120C120D4A28
:10620000473C1842A8131C421E121D4220124B93F9
:10621000022430408069D293861110204F4D0E4FDA
:106220000E5E0F5E0F5F3F50FE13189F04000424A4
:10623000BF430000BF4302004F43543C5A42781111
:106240001F4276111F53824F76111B434A9301243C
:106250000B430E4B0E5E0E5B0E5E3E50FE138E4FDA
:1062600000008F108F118F108F118E4F02008E48FB
:1062700004000E4C0F4D3E50FAFF0F634A9303206B
:106280003D400414023C3D40FE1303123012060050
:10629000B0125A502152304080691F42A6124B93CF
:1062A0000224304080695E4286117E9003000524FE
:1062B0006E92022430408069093C825F7411825FD3
:1062C00092114F43B012745D30408069825F921129
:1062D0004F430C3C4B930224304080694F43D29390
:1062E00086110420B012525B30408069B012B65E55
:1062F00030408069B0125446D242A4121711F240C5
:1063000003005E11B0126646D24217117E11B01220
:10631000585530408069C293C81127201A42B213E1
:106320001B42B413B01254461842E0111942E21154
:106330001852E6111962E811B0126646824AB21389
:10634000824BB413C243C811B01254468248E611BE
:106350008249E811824AE011824BE211814F00002C
:10636000B012DA512F41B0126646B0124E514A3C7B
:10637000B0124E51084E094FB2F0EFFF8201E2B366
:10638000121215240A4E0B4F1A820A121B720C129B
:1063900016420E1217421012068A077B0A460B4756
:1063A00036930A203B90FF7F07204D43063C4D4328
:1063B0003A433B40FF7F013C5D43E2B31C1216248D
:1063C0000E480F491E8214121F721612164218121E
:1063D00017421A12068E077F0E460F470F9B03388F
:1063E0000520069A032C0A4E0B4F043C4D930220C5
:1063F000304080690B9304381B9308341A93062CA1
:106400000E480F49B012646030408069824AB2136E
:10641000824BB413D243C811B01254468248E611DD
:106420008249E811824AE011824BE211814F00005B
:10643000B012DA512B3CF2F0FDFF1212C243581198
:10644000B01258554F9304209243D61130408069C2
:106450007F900900022430408069893CB0124E517F
:10646000824E0A12824F0C12B24000040E12824376
:106470001012F2D0030012127F40030030407C69FA
:10648000B0125446814F0000B0128C562F4130405C
:106490002469B0125446D242D2111411F2400300C2
:1064A0005011B0126646C29314113D20B0125446EA
:1064B0004B4F5F43B012BE45F2F0DAFF70005F430E
:1064C000B012BE45F2F03F000400F2F0EFFF1B00F7
:1064D000F2F0DFFF1B005F4226117FD00500C24FA4
:1064E0007000D242271171001E422411C24E740066
:1064F0008E104E4EC24E7500C2437300E2D31B0095
:10650000E2D21B00F2D21B00F2D0400004004F4345
:10651000B012BE45F2F03F000200F2F03F00000072
:106520004F4BB0126646C29314110224304080696A
:10653000C29352110B24C24352115E437F40B9FFF4
:10654000B0121A4EB012165630408069C2935611DE
:1065500028201F42D6118243D6111F930C207E4063
:1065600005007F40ABFFB0121A4EB0121656B012A3
:106570009253304080692F930B205E437F40B9FFD8
:10658000B0121A4EB0121656B012F2553040806951
:10659000C2937E11022430408069B012E05F304027
:1065A00080696E437F400500B0121A4E1FF3042429
:1065B000B012825630408069B0129C4E30408069E3
:1065C000C293BE130220304080693840FC114B4317
:1065D0005A435F42BE134ABF0A24884300004FCA91
:1065E000C24FBE137E4003004F4BB0124C4B4A5A71
:1065F0005B5328537B92ED23304080695B4213113B
:106600004E4B0E5E8E43FC11B0124A4A5E434F4B16
:106610003040E868B0125446C243F8135B428E1211
:1066200058437B92012448435A437B90090001243C
:106630004A43489302204A930724C2438E125E4283
:1066400006120E5ECE43EC11B0126646489302204D
:106650004A931E24B0125446D253B713F29043000B
:10666000E5110E205E42F5115E92F4110C245E538A
:10667000C24EF5117E9006000628C243F511033C78
:1066800058E35B43023C4B434843B0126646033C2D
:106690004B9360204843B01254465A424E11B012F8
:1066A00066464A930824B0125446F2400A008E12FD
:1066B000B0126646413CB01254465942EC115A425F
:1066C000EE11B0126646B01254465642F4115742CB
:1066D000F511B01266464697202449931E20B01249
:1066E00054464A4FE243EC11B01254465742F4115B
:1066F0005942F511B0126646479905245E42F511DC
:106700005E4EF611013C4E43C24EED11F240430085
:10671000E511C24306124F4A0B3C4F4A7F536F9319
:106720000B2CB0125446F2404500E511D24306123C
:10673000B01266465A43013C4A434B930C24B012B4
:106740005446C2484011B01266467F400E00B01257
:106750006E46013C4A43B01254464B4FF2900A0039
:106760008E120320B01238479F3CB01266464A93FF
:10677000022030408069B012544682430A14C2435A
:10678000DE11D2438E12B0126646B012F24B4F9316
:10679000022030408069B0125446F24009008E1247
:1067A000B0126646B012664730408069B012544657
:1067B000C29330112B20E2433011C243B611B01204
:1067C0006646B01254464B4FD293081112205E42D7
:1067D00030115E9305207F401000B0126E46093CD8
:1067E0006E930720D242B6110811F2400300301117
:1067F000013C4F4BB0126646C29308110320B01201
:106800007054063CB0125446C2433011B012664672
:10681000B0125446C2438E12C243D011833C7F4013
:106820000D00AC3CB012704B4F93AA248293CE1152
:10683000A7208293C013A420B01254464B4FF2906D
:10684000030030113120C29308112E205D420A113D
:106850007D931B244E4D5F4EBD13C24F0A117F9393
:106860000220F2430911FE43BD13C24DB611F2439B
:106870000811D24330117F401000B0126E46D2434F
:106880007800F2F0CFFF01000D3CD2430811C24363
:106890003011D2437800F2F0CFFF0100B012624510
:1068A000B0124445B01262454F4B3C3C8243461106
:1068B000B01254465B424011B0126646C2933E117C
:1068C00002247B4003001F424811C2933C11582010
:1068D000C29313115520829FFC1152208243FC1158
:1068E000B0124A4A4E4B4F43B0124C4B493CB01287
:1068F00054461A4236115B429011B0126646B012ED
:1069000054464E4B0E5E8E4A0E115E424C114B9316
:1069100003247EF0FBFF023C7EF0FDFFC24E4C11D3
:10692000C2433A11B01266462B3CB0125446D242D2
:10693000B6110811F24003003011B0126646C2933E
:1069400008111E20B01270541B3CF243CA13F243CC
:10695000C913F2406400CF138293FC110D20B240A2
:10696000C413FC11F2401C00CD13C2931311082470
:10697000B0128E4A4F9304247F401100B0126E462D
:10698000215336413741384139413A413B41304149
:10699000F293B6130824B012D0457F930624B012A8
:1069A0004C615F4330414F4330414F4330410F1200
:1069B0000E120D120C125E4276005F4250114F9380
:1069C0001C24183CC293141118201F428C120F93E0
:1069D00004241F52B813CF4EFFFF9292BA13B8137C
:1069E000032CB012404D093CF2F0BFFF0000B01282
:1069F0008C56033C7F900300E5273C413D413E41DE
:106A00003F41B1C0F000000000130F125F42700060
:106A10003FF0200006245F4270002FF202245F4204
:106A200070003F41B1C0F000000000130F120E12C1
:106A30000D120C125E427E005F4230114F933124E2
:106A40002D3CC29308112D201D42CE110D930E2412
:106A50001F428A120D5FCD4E00001F53824F8A12D3
:106A60001F9208121E288243CE111B3C7E907E008E
:106A700003204E435F430F3C7E907D000320E2D312
:106A800032110F3CE2B332110524F2F0FDFF321156
:106A90007EE020004F43B0128E47033C7F900300FE
:106AA000D0273C413D413E413F41B1C0F000000094
:106AB00000130F120E120D120C125F4230114F9381
:106AC0001E241A3CC29308111A20C29362110F208F
:106AD0001F42D4111F92A2120A2C1E42C0130E5F35
:106AE0006E4E1F53824FD411C24E7F00083C82432A
:106AF000C013B0120C4C033C7F900300E3273C41D1
:106B00003D413E413F41B1C0F000000000130B1277
:106B10000B4FC29328110820F2907D002A110428FF
:106B2000D2432811B012BC4AB01254464E4F5C42B8
:106B30002A117C90FAFF152C5F422C114D4FCD4B42
:106B4000AA125F53C24F2C117F90FAFF0220C2435A
:106B50002C115C53C24C2A114F4EB01266460F43A3
:106B6000033CB01266463F433B4130410B120A12D0
:106B70000912081207120D9370240F9E6E24342CF4
:106B80000C4E0CDF1CF31B240C4E0CEF1CF30720E7
:106B90002D9307280B4E1BF32C430C8B033C0C4D01
:106BA000013C1C430D8C0A4C094E0B4FFB49000065
:106BB0001B533A53FB230A4F0A5C0E5C013C0A4FFD
:106BC0000B4D12C30B100B24094B084E0C4ABC484A
:106BD00000002C533953FB230B5B0E5B0A5B1DF348
:106BE0003C24EA4E0000393C0E5D0C4F0C5D0B4C12
:106BF0000BDE1BF31B240B4C0BEE1BF306203D900E
:106C0000030003280B4E1BF3013C0B4D0D8B094E6B
:106C10000A4C084B088C3A533953EA490000074A9A
:106C20000758F9233BE31B530C5B0E5B0B4D12C360
:106C30000B100E240A4B084E094C28832983A948BF
:106C400000003A53FA230A8B0B4A0B5B0E5B0C5B7A
:106C50001DF30324DC4EFFFFFFFF3741384139416C
:106C60003A413B4130410B120A12091208123D9081
:106C70000600092C0C4F043CCC4E00001C533D5325
:106C80000D93FA23203C4E4E4B4E0B9303240C4B9A
:106C90008C100BDC1FB306243D53CF4E0000094F70
:106CA0001953013C094F0C4D12C30C100A49084CF2
:106CB0008A4B00002A533853FB230C5C0C591DF3FC
:106CC0000224CC4E0000384139413A413B41304129
:106CD0000D412D533E4D3F400E6BB012866E30413C
:106CE0000D4E0E4F3F400E6BB012866E30410B12B0
:106CF0000A12091208120712061205120412318232
:106D0000084F814E0400094D1F411A001D411C000F
:106D10004C4D044D841045444E4F7EB0400011242C
:106D2000F140300000000E4F8E105EF303247E40D1
:106D30005800023C7E407800C14E01000C412C53AB
:106D40000F3C7EF020000424F14030000000043CA1
:106D50004C930524C14D00000C411C53013C0C41D7
:106D60000A4C8C108C118C108C110B4C06410C4170
:106D70008C108C118C108C11074C0A860B770E4FDF
:106D80008E10C14E02006EF202240745013C3743CB
:106D90004F4F7FB010003C201D4104003D531D5358
:106DA000CD930000FC231D810400099A0228098A62
:106DB000013C0943E1B30200052409950228098535
:106DC000013C0943054D079D012C05474F930D38A4
:106DD000F1402000060006430B430E3C0F410F56C6
:106DE0006F4F8F1116538812013C0643069AF63BEB
:106DF0000B4AF14030000600058B053C5F41060060
:106E00008F1188121B530F450F5B0F99F72B0A3C0C
:106E100006430B43073C1B530F410F566F4F8F1117
:106E200016538812069AF73BE1B3020002244A4443
:106E3000083C1A4104000A8B0D3C3F403000881288
:106E40007A534A93FA2344440B54F33F37538F1138
:106E500088121B530F4A0F5B6F4F4F930724079302
:106E6000F523043C3F40200088121B530B99FA2B5A
:106E70000F4B315234413541364137413841394168
:106E80003A413B4130410B120A1209120812071213
:106E90000612051204123150B6FF814F3A00064E19
:106EA000054D814E3E00C1432F00C1432B00C1431D
:106EB0002E00C1432A00814330008143260007434E
:106EC00081432C000E413E501C00814E1C0030407E
:106ED00000750F461F53814F400007931E207E9080
:106EE00025001320814300008143020081463E00BB
:106EF000C1432F00C1432B00C1432E00C1432A00D0
:106F0000814330003040F67405478E110F4E9112C8
:106F10003C0091532C003040DC747E906300C5240B
:106F20007E90640027347E90300094247E9031005F
:106F30001A347E902A0077247E902B000A347E90AB
:106F4000230042247E902500E0277E9020003220FE
:106F5000563C7E902D0049247E902E005B247E902E
:106F60002B002820473C7E903A008C387E905800B9
:106F70002120E93C7E906F0024247E9070000A342A
:106F80007E906900E3247E906C0022247E90640051
:106F90001120DC3C7E90730098247E9074000434B1
:106FA0007E9070000720B83C7E907500D1247E90C2
:106FB0007800D22419413E0018412C000889304045
:106FC000CA74B1422800CB3CF1D200003040FA74C0
:106FD000694159F36E4104247EF0FEFF6ED3013CFB
:106FE0005ED3C14E00003040FA74F1D010000000B2
:106FF0003040FA74F1402B0002003040FA74F190F6
:107000002B00020002203040FA74F1402000020000
:107010003040FA74C1932A0002243040E074D14316
:107020002E003040FA740E452E532A450A93033839
:10703000814A26000D3CC1932E0002243040F0749A
:10704000F1D0100000003AE3814A26009153260057
:10705000054E273C819326001520C1932E00122057
:10706000694179F010005E4301244E434E4E0E11EB
:107070000E434E106A417AF07F004ADEC14A00009A
:107080003040FA741A4126000A5A0C4A0C5C0C5C17
:107090000A5C814A2600B150D0FF26008E11815E25
:1070A0002600D1432A003040FA74074527536E4525
:1070B000C1932E000320C1932A002627C14E04004D
:1070C000C14305000E412E52033C074527532E4570
:1070D000C1932E000724E1D201001F412600C14FB9
:1070E0000300063CC1932A0003249141260030008E
:1070F0000E9302203E407C7911120400111204000C
:107100001D4134001F413E00B012EE6C2152815FE0
:107110002C0005473040DC74074527532945814939
:107120001E005E43099301204E434E5E4E5E4E5E4E
:107130006A417AF0F7FF4ADEC14A00000547B140D4
:1071400010002800533CD1D30100063CE1D20000DE
:10715000B1400A002800033CB140100028006B41F8
:107160006BB324240C453C522845174502001645B4
:1071700004001B45060081481E008147200081460F
:107180002200814B2400D1432B0008930620079353
:107190000420069302200B930224C1432B000B5BB7
:1071A0000B430B6BC14B2F00054C203C5BF3074599
:1071B0000D24275228451B45020081481E00814BA3
:1071C0002000D1432B0008930920063C27532B4570
:1071D000814B1E00D1432B000B930224C1432B0093
:1071E0000B5B0B430B6BC14B2F000547F1B200004B
:1071F0001224C1932B000F206841B1901000280089
:10720000032078D04000053CB1922800042078D0BB
:107210002000C1480000684168B23024C1932F00AB
:107220002D24F1402D00020068B31124B1E31E00AB
:10723000B1E32000B1E32200B1E3240091531E002A
:10724000816320008163220081632400173C58B3CE
:107250000F241A411E001B4120003AE33BE30E4A73
:107260000F4B1E530F63814E1E00814F2000063CC2
:107270001A411E003AE31A53814A1E00C1431B0003
:1072800068B36A2416411E00914120003C00184159
:10729000220014412400074137501A000946914149
:1072A000280032001B4128008B108B118B108B1192
:1072B000814B3400814B3600814B380011123A006B
:1072C00011123A0011123A0011123A000C491D41F4
:1072D00044000E480F44B012367631520B4C3C90AD
:1072E0000A0005347B503000C74B00000C3C4B4C6F
:1072F000D1B3010003247A403700023C7A405700A2
:107300004A5BC74A00000647365311123A00111271
:107310003A0011123A0011123A000C491D41440082
:107320000E480F44B01210763152094C814D3C008A
:10733000084E044F37530C93B2230D93B0230E9392
:10734000AE230F93AC2381431E0081432000814371
:107350002200814324006C3C58B33E2414411E009B
:1073600017412000084138501A001941280089109F
:107370008911891089111C4128000D490E440F47BD
:10738000B012A8750B4E3E900A0005347B503000B9
:10739000C84B00000C3C4B4ED1B3010003247A4093
:1073A0003700023C7A4057004A5BC84A0000064852
:1073B00036531C4128000D490E440F47B012727518
:1073C000044E074F38530E93D0230F93CE2381439F
:1073D0001E00814320002C3C17411E0008413850FC
:1073E0001A001E4128000F47B0126A750D4F3F90DA
:1073F0000A0005347D503000C84D00000C3C4D4F54
:10740000D1B3010003247C403700023C7C4057008C
:107410004C5DC84C0000064836531E4128000F47FB
:10742000B0125075074F38530F93DB2381431E0072
:10743000B1900A0028000224C1430200C1932E002B
:107440002A240F413F501C00814F42001A411C006A
:107450008A108A118A108A11814A440081464600A6
:107460000A468A108A118A108A11814A48001C41F2
:1074700042001D4144001C8146001D7148002C83C0
:107480001C9126000E2CE1D301005E4126004E8C9B
:10749000C14E0300063CC1932A00032491412600FB
:1074A000300011120400111204001D4134000E4678
:1074B0001E531F413E00B012EE6C2152815F2C0022
:1074C0000D3C7F498F1191123C000E490E581991C5
:1074D0004000F72B81493E00814E2C0007430E3CB3
:1074E000914126003000D1432E00C1432A00033CC5
:1074F000054ED1432A008143260017431641400020
:107500006E464E9302243040D26E1F412C00315003
:107510004A003441354136413741384139413A41D9
:107520003B4130410B120B4F6F4B4F9306241B53C3
:107530008F11B0120E6B0F93F737CB93000005201D
:107540003F400A00B0120E6B013C3F433B413041CB
:107550007C4010000D4E0E430F5F0E6E0E9D0228F4
:107560000E8D1FD31C83F8233041B01250750F4E7F
:1075700030410B120A120912794020000A4C0B4DBF
:107580000C430D430E5E0F6F0C6C0D6D0D9B0628AA
:1075900002200C9A03280C8A0D7B1ED31983F22338
:1075A00039413A413B413041B01272750E4C0F4D9A
:1075B000304107120612051204123012400004482E
:1075C0000549064A074B084309430A430B430C5C31
:1075D0000D6D0E6E0F6F086809690A6A0B6B0B97C9
:1075E0000E2808200A960B28052009950828022055
:1075F00008940528088409750A760B771CD39183B3
:107600000000E523215334413541364137413041B3
:107610000B120A120912081218410A0019410C0033
:107620001A410E001B411000B012B27538413941A9
:107630003A413B4130410B120A120912081218411B
:107640000A0019410C001A410E001B411000B01233
:10765000B2750C480D490E4A0F4B384139413A4139
:107660003B4130410B120A1209120812071218414D
:107670000C0019410E001A4110001B411200B012FB
:10768000B275174114008748000087490200874AF5
:107690000400874B06003741384139413A413B41AC
:0476A0003041001362
:1076A4003C4C524C744CF04C024D164D244D344D10
:1076B400F8522853385348535853685378538853CF
:1076C400436F6E6669672E72656164446F6E6520F0
:1076D4007374617274656400636F6E662E70657294
:1076E400696F64203D20636F6E662E706572696FEA
:1076F400642F322025750A00636F6E662E766572DC
:1077040073696F6E203D2025750A004D494E5F5008
:107714004552494F44203D2025750A004D41585F8C
:10772400504552494F44203D2025750A00636F6E31
:10773400662E706572696F64203D20636F6E662EDD
:10774400706572696F64203E204D41585F50455208
:10775400494F44203F204D41585F504552494F44C2
:10776400203A20636F6E662E706572696F642025FF
:10777400750A00636F6E662E706572696F64203DD2
:1077840020636F6E662E706572696F64203C204DB5
:10779400494E5F504552494F44203F204D41585F68
:1077A400504552494F44203A20636F6E662E7065EF
:1077B40072696F642025750A00636F6E662E7665A4
:1077C4007273696F6E2025750A00636F6E662E7082
:1077D4006572696F64202025750A00436F6E6669BF
:1077E400672E7772697465207374617274656400BE
:1077F4004D6F756E742E6D6F756E74446F6E653A51
:107804002025750A004D6F756E742053554343450A
:1078140053533A202100436F6E66696720697320D1
:1078240076616C69642100436F6E6669672E7265C8
:1078340061642000496E76616C696420766F6C75B2
:107844006D652E2020436F6D6D697420746F206DFB
:10785400616B652076616C696400436F6E6669676D
:107864002E636F6D6D6974206973205355434345CE
:10787400535300436F6E6669672E636F6D6D697451
:10788400206973206661696C6564004D6F756E7460
:10789400206661696C656400436F6E6669672E7764
:1078A40072697465446F6E65207374617274656483
:1078B40000436F6E6669672E636F6D6D6974207324
:1078C40074617274656400636F6E662E70657269AC
:1078D4006F64203D2025750A00436F6E6669672E2C
:1078E400636F6D6D697420446F6E65006C5B7E5CC4
:1078F400725BA85CB65C785B6576656E7420766FA7
:1079040069642054696D6572302E6669726564001D
:107914006C61F4621663706336645C6480649264C0
:10792400C065FC651466AC671E682468AC68EE68C4
:107934002A694A69866192619A62D4620262426FDC
:107944006F742E626F6F74656420636F6E662E7041
:107954006572696F6420697320612075696E743380
:10796400323A2025750A00000000100050009000F3
:10797400D000F00000040402286E756C6C2900002D
:10798400090010102008030001FFFF002212221238
:107994005612FF0101FFFF01FFFF010012008410D6
:0879A40020080300020012A2FA
:10FFE000FE44FE44B26A2C6AFE4486576857FE44BB
:10FFF0000A6AAE69FE44FE44CA57AC57FE4400404C
:0400000300004000B9
:00000001FF
